:08000000803102288731FD2F39
:100E2E0087313427873187311D2708006230510101
:100E3E008D008F0191010230930090019201080004
:100E4E0070087104031908000130F0020030F13B04
:100E5E005230890B302F0000272F40019801990145
:100E6E009A019201930194017E01CE010F30C300CD
:100E7E00B801C401B901CF01BA01C501D001080002
:100E8E0087311727873103104001191F0314031CE4
:100E9E00532F40011917552F400119130310991E96
:100EAE000314031C5D2F400199165F2F4001991208
:100EBE000310191E0314031C672F40011916692F06
:100ECE004001191203101A1D0314031C712F400147
:100EDE001A15732F40011A1103109A1C0314031CC8
:100EEE007B2F40019A147D2F40019A1003101A1C7B
:100EFE000314031C852F40011A14872F40011A106A
:100F0E000310181D0314031C8F2F40011815912F69
:100F1E00400118110310981C0314031C992F400153
:100F2E0098149B2F400198100310181C0314031CD7
:100F3E00A32F40011814A52F400118100310991F5C
:100F4E000314031CAD2F40019917AF2F40019913C5
:100F5E0003109A1F0314031CB72F40019A17B92FC1
:100F6E0040019A1303101A1F0314031CC12F4001D2
:100F7E001A17C32F40011A1303109A1D0314031CD2
:100F8E00CB2F40019A15CD2F40019A1103101A1E36
:100F9E000314031CD52F40011A16D72F40011A1225
:100FAE0003109A1E0314031CDF2F40019A16E12F23
:100FBE0040019A120310181E0314031CE92F40015E
:100FCE001816EB2F400118120310981E0314031C61
:100FDE00F32F40019816F52F40019812E830F000DB
:100FEE000330F1008731272787314A2F400187319F
:020FFE00472F7B
:020000040001F9
:0A000E00EC3FFF3F9F3FFF3FFF3F25
:00000001FF
